:020000040800F2
:1000000048EF002079020008A17D0008A532000811
:100010009D7D0008391E0008FFBA0008000000009E
:10002000000000000000000000000000C5A2000861
:100030004D26000800000000A58100081DA600084C
:100040009302000893020008930200089D850008AF
:10005000930200089302000893020008930200082C
:10006000930200089302000893020008930200081C
:10007000930200089302000893020008930200080C
:1000800093020008930200089302000893020008FC
:1000900093020008930200089302000893020008EC
:1000A00093020008930200089302000893020008DC
:1000B00093020008930200089302000893020008CC
:1000C00093020008930200089302000893020008BC
:1000D00093020008B1B700089302000839B800087D
:1000E000930200089302000893020008930200089C
:1000F000930200089302000893020008930200088C
:100100009302000865890008930200089302000822
:1001100093020008930200089302000881A60008D9
:10012000930200089302000893020008930200085B
:1001300000F002F800F090F80AA090E8000C824469
:100140008344AAF10107DA4501D100F085F8AFF246
:10015000090EBAE80F0013F0010F18BFFB1A43F0A5
:1001600001031847E4B5020004B60200103A24BFA8
:1001700078C878C1FAD8520724BF30C830C144BF0C
:1001800004680C607047000000230024002500264E
:10019000103A28BF78C1FBD8520728BF30C148BFEA
:1001A0000B6070476E2900F03685702900F0B5812C
:1001B000662913F08087652913F07D87672913F07E
:1001C0007A876129AFF3008003681B0A28BF41F0DA
:1001D0008001692900F02681642900F023817529B6
:1001E00000F020816F2901F03C80782900F08181A6
:1001F000E92900F0D787E42900F0D487F52900F039
:10020000D187EF2901F03980F82900F08081036857
:10021000DB0928BF41F08001632900F0468773297C
:1002200000F04B87E32901F0CB80F32901F0D08067
:10023000002070471FB501F02BF8040000200021BA
:1002400012F0B0FD401C60600020002112F0C0FDE3
:10025000E0601FBD10B510BD01F058F91146FFF761
:10026000E9FF0EF0FDF901F076F903B4FFF7F2FFB4
:1002700003BC0BF056FE00000948804709480047C0
:10028000FEE7FEE7FEE7FEE7FEE7FEE7FEE7FEE746
:10029000FEE7FEE704480549054A064B70470000A3
:1002A00021A600083101000848C7002048EF0020BF
:1002B00048DF002048DF0020704710B54C1084EA6A
:1002C000530404D54042C1F1000138BF491E1B420E
:1002D00004D55242C3F1000338BF5B1E00F0AEFBF1
:1002E00014F0804F04D04042C1F1000138BF491ED4
:1002F00014F0004F04D05242C3F1000338BF5B1E1C
:1003000010BD10B5044600F091FB0068005DC0060A
:1003100002D504F1200010BD204610BD1CB50C46CE
:10032000064B7B4469460090204600F09CFE044644
:100330000020694600F0AAFE20461CBD670D0000A3
:100340000FB4044910B503AA029800F0BBFE10BC1C
:100350005DF814FB180000200FB41CB5084B06AA6A
:100360007B4469460090059800F07DFE044600201D
:10037000694600F08BFE20461CBC5DF814FB0000B3
:10038000290D000070B5044685690068C10601D5D5
:10039000302600E02026C00707D070BDD4E9012137
:1003A00030469047206A401C20626D1EF6D570BD15
:1003B00070B5044685690078C00707D170BDD4E9DF
:1003C000012120209047206A401C20626D1EF6D536
:1003D00070BD70B50C460546012A05D02878800608
:1003E00000D5EA69002302E0012305E05B1C93428B
:1003F00002D2E05C0028F9D1A869E618C01AA86109
:10040000286A184428622846FFF7BCFF04E0D5E9B3
:10041000012114F8010B9047B442F8D32846FFF7A6
:10042000C7FF70BD2DE9F04106460024106875290C
:10043000314616A510D000F083FB002802DA4042B6
:1004400013A507E031688A0701D512A502E0490724
:1004500004D511A5012401E000F07BFB00210A2254
:1004600006F1240709E0B0FBF2FCB0FBF2F302FB5B
:100470001C00303078541846491C0028F3D123461C
:100480002A463046BDE8F04100F06CBB0000000099
:100490002D0000002B00000020000000F0B40D46ED
:1004A0000188090502D5214C7C4402E01F4C7C44A4
:1004B0000E34002100F1240608E002F00F071209B3
:1004C000E75D42EA03721B097754491C52EA0307AD
:1004D000F3D102780023120704D5702D06D009B19C
:1004E000022311342246F0BC00F03CBB012310343F
:1004F000F8E770B504460D462146106800F029FB68
:10050000024629462046BDE870400023C6E7D21DBA
:1005100022F00703D3E90023C0E70368126843F021
:10052000200303600823C3610023B7E7ECAE020099
:100530002DE9F05F894604464FF0000ADFF874B1F8
:10054000FB44C0F820A02046E1688847002874D00A
:10055000252806D0D4E901219047206A401C20625A
:10056000F1E700265F462046E168884720280546D7
:1005700007DB312D05D2781910F8200C08B106439D
:10058000F1E7B00701D526F00406C4F81CA0002747
:10059000C4F818A02A2D09D028460BF0BBFC38B3AC
:1005A00004EB8708303DC8F8185019E059F8041BCF
:1005B000204604EB87029161E1688847012F0546D8
:1005C00018D1E069002820DA26F020061DE0D8F8CE
:1005D000180000EB800005EB40003038C8F8180028
:1005E0002046E168884705460BF094FC0028EED1D0
:1005F000012F0AD02E2D08D12046E16888477F1CA4
:100600000546022F46F02006C4DBA069002803DA65
:10061000404246F00106A061F00701D026F0100626
:100620006C2D0BD0682D09D04C2D39D06A2D35D0CA
:10063000742D35D07A2D33D016E038E0E1682F469E
:1006400020468847B842054609D16C2F26D04FF482
:100650008060E168064320468847054604E06C2F29
:100660001AD04FF4807006430DB3A5F1410019284C
:1006700002D8203546F400664A46294620462660C0
:100680004E46FFF78FFD80B101280BD0F61D26F0F6
:10069000070000F1080956E74020E4E78020D8E78A
:1006A0000020D6E706F104094DE7284652E7206A04
:1006B000BDE8F09F7CAE0200401ECAB210F8011FD8
:1006C0008A4202D00029F9D10020704730B5054692
:1006D0000B462A4613F8014B12F8010B08B1A04251
:1006E000F8D01CB1002802D06D1CF1E7284630BDBF
:1006F00040EA0103024630B59B0710D14FF00134A8
:1007000000E008C208C91D1B9D4315EAC41FF8D0AC
:1007100013F0FF0102F8011B0DD01B0AF8E711F8D6
:10072000013B002B02F8013B05D011F8013B002BE7
:1007300002F8013BF3D130BD10B5431C02E010F8C4
:10074000011B71B18107FAD14FF0013202C88C1A36
:100750008C4314EAC211F9D0C01A0A0603D0C01E95
:1007600010BDC01A10BD0A0401D0801E10BD0902C0
:10077000FCD0401E10BD40EA010370B59B072ED18E
:100780004FF00136042A2AD308C810C99D1B9D4387
:10079000121F15EAC61517D0D8B2E1B2401A50EAB6
:1007A000056110D198B2A1B2401A50EA05410AD1B0
:1007B00023F07F4024F07F41401A50EA052102D106
:1007C000180EA0EB146070BDA342DBD018BA21BA9A
:1007D000884201D9012070BD4FF0FF3070BD0AB9C9
:1007E000002070BD10F8013B11F8014B63B1A3422A
:1007F0000AD1521E08D010F8013B11F8014B1BB171
:10080000A34201D1521EEDD1181B70BD421E12F839
:10081000013F002BFBD111F8013B002B02F8013BFB
:10082000F9D17047032A40F2308010F0030C00F039
:10083000158011F8013BBCF1020F624498BF11F81A
:1008400001CB00F8013B38BF11F8013BA2F10402D3
:1008500098BF00F801CB38BF00F8013B11F003034B
:1008600000F02580083AC0F0088051F8043B083AAF
:1008700051F804CBA0E80810F5E7121D5CBF51F851
:10088000043B40F8043BAFF30080D20724BF11F8CB
:10089000013B11F801CB48BF11F8012B24BF00F830
:1008A000013B00F801CB48BF00F8012B704710B5A1
:1008B000203AC0F00B80B1E81850203AA0E8185058
:1008C000B1E81850A0E81850BFF4F5AF5FEA027C19
:1008D00024BFB1E81850A0E8185044BF18C918C088
:1008E000BDE810405FEA827C24BF51F8043B40F829
:1008F000043B08BF7047D20728BF31F8023B48BF0E
:1009000011F8012B28BF20F8023B48BF00F8012B4B
:1009100070474FF000020429C0F0128010F0030C61
:1009200000F01B80CCF1040CBCF1020F18BF00F8E2
:10093000012BA8BF20F8022BA1EB0C0100F00DB891
:100940005FEAC17C24BF00F8012B00F8012B48BFEF
:1009500000F8012B70474FF0000200B51346944693
:100960009646203922BFA0E80C50A0E80C50B1F107
:100970002001BFF4F7AF090728BFA0E80C5048BF1B
:100980000CC05DF804EB890028BF40F8042B08BFB9
:10099000704748BF20F8022B11F0804F18BF00F8B5
:1009A000012B70474FF0013C50F8042B51F8043BE9
:1009B0009A4221D1A2EB0C03934313EACC1317D133
:1009C00050F8042B51F8043B9A4215D1A2EB0C03CA
:1009D000934313EACC130BD150F8042B51F8043B8A
:1009E0009A4209D1A2EB0C03934313EACC13DBD058
:1009F0004FF00000704700BFD01A01BAB1FA81F180
:100A000001F0180122FA01F0CB40C1F12001DBB264
:100A1000C0B2C01A2CFA01F3D11A914311EAC311E2
:100A2000E6D17047704770477047704710B500F0C7
:100A30002FFC001D10BD00BF6D23010053EA020C06
:100A400000F069802DE9F04B4FF00006002B1FBF2E
:100A5000B3FA83F503FA05F424FA05F65E4012BFF3
:100A60001643B2FA82F502FA05F4C5F120051EBF5D
:100A700022FA05FC44EA0C04203556EA044C4FEAFD
:100A8000144418BF641C4FF000084FF00009904256
:100A900071EB030C39D3002919BFB1FA81F701FAC0
:100AA00007F6B0FA80F700FA07F6C7F120071EBF75
:100AB00020FA07FC46EA0C062037B6FBF4FCA7EB4D
:100AC0000507103F07F01F0BCBF120060CFA0BFBBC
:100AD0002CFA06F644BFB3460026202FA4BF5E467C
:100AE0004FF0000B5BEA060C08BF4FF0010B19EB4F
:100AF0000B09ABFB027C48EB0608C01B06FB02CCD3
:100B00000BFB03CC71EB0C01C1E70B4602464146DF
:100B10004846BDE8F08B13B54FF000004FF00001E0
:100B2000AFF30080BDE81C40704710B500F0B4FB87
:100B3000006810BD10B5044600F0AEFB046010BDA7
:100B400009684A0501D540B27047C905FCD500B215
:100B5000704709684A0501D5C0B27047C905FCD580
:100B600080B270472DE9F0470D46994692460446FB
:100B700000F124080168880604D5E06921F010011D
:100B8000216000E00120A84201DD471B00E00027B2
:100B9000A1697A1902EB0900081AA0612078C00641
:100BA00002D42046FFF7EEFB002608E0D4E901213D
:100BB0001AF806009047206A401C761C20624E45B9
:100BC000F4DB2078C0060AD52046FFF7DBFB06E001
:100BD000D4E9012130209047206A401C2062381E51
:100BE000A7F10107F4DC07E0D4E9012118F80500BA
:100BF0009047206A401C2062281EA5F10105F3DC05
:100C00002046FFF7D5FB2078000602D50220BDE87C
:100C1000F0870120FBE711680268006A530501D5DF
:100C200008700AE0D30501D5088006E0130603D555
:100C3000C217C1E9000200E0086001207047704758
:100C40002DE9FF4F0C461E464FF0FF378BB0D2E91F
:100C50000001DDF860800A908A46C1F30A5505B9A3
:100C60003D46002108464FF00000BAF1000F00F4A5
:100C7000400005DA00EB80004FF4400101EA50002B
:100C80004FEA9059B9F1010F00DDB9460A9850EAD0
:100C90004A000ED044F61050A5F2FF3545432F14FC
:100CA000B8F1000F1ED07542291E1EDDC9F10002E9
:100CB0001CE0B8F1010F4FF0000001D0302103E03B
:100CC000F24305E02154401CB042FBDB30460022D9
:100CD000002121540B99C1F80880C1E900200FB010
:100CE000BDE8F08FBD1B6D1CDEE74A4600DA6942A5
:100CF00006A800F071FB06AB93E8070003AB83E89E
:100D0000070050460A9900F02FFC8DE80700A0F577
:100D100000501F3800900398002D0ADD42F21F0199
:100D20004A460844002303A90390684600F098FE51
:100D300009E0A0F500504A461F38002303A903909C
:100D4000684600F0A2FE8DE807000004000C03D006
:100D50004FF0FF30410800E01046B8F1000F03D01B
:100D60000022009215461EE0751E05D400F098FA88
:100D7000303262556D1EF9D5B3460122084302D0C8
:100D800000227F1C04E02078302801D100227F1E41
:100D9000002A099784D01DE0112D07DA00F080FAAF
:100DA000303262556D1C50EA0102F5D1084302D081
:100DB0000098C8B10EE00021681E05E0235C625C6B
:100DC00063542254401E491C8142F7DBAB46A81BEA
:100DD000401E0990002004F80B000B98099AC0F8F7
:100DE0000880C0E9002B7AE711264FF0000857E78A
:100DF0002DE9F04F88460446D21D22F0070191B03C
:100E0000D1E90001CDE90A010AF0FAFF02460B9888
:100E1000C00F01D02D2007E02068810701D52B20CD
:100E200002E0202101EAC000032A099001D0072A2C
:100E300005DB03464146204600F078FA0BE12078B6
:100E4000800601D5E06900E00620B8F1650F814613
:100E500006D0B8F1660F18D0B8F1670F70D131E045
:100E60000020B9F1110F009001DB112301E009F11D
:100E700001030AAA01A90CA8FFF7E2FEDDE90C7044
:100E8000002609F10105834647E001204B4600900A
:100E90004FF000470AAA01A90CA8FFF7D1FEDDE92F
:100EA0000DB00C995D46002610B909F101000D182E
:100EB000B9EB050003D4C0F1FF3609F10105A5EB3C
:100EC00009002BE0B9F1010F01DA4FF00109002010
:100ED000B9F1110F0090484601DD112300E00346EF
:100EE0000AAA01A90CA8FFF7ABFEDDE90C704D467C
:100EF00000268346207800070AD4AB4500DA5D4619
:100F000001A8012D04DD411911F8011C302907D079
:100F10004F4502DA17F1040F04DA012082460FE090
:100F20006D1EEEE7002F02DCED1B3E4403E0781C53
:100F3000A84200DD7D1CB81B00F1010A4FF00047FC
:100F40002078000703D4AA4501DB4FF0FF3A0021C7
:100F5000B7F1004F0DF143088DF8431024D0022063
:100F60002B23002F01DA7F422D230A21021EA0F13C
:100F7000010000DC5FB197FBF1FC97FBF1F201FB94
:100F80001C7C17460CF1300C08F801CDEEE7A8F1F7
:100F9000010003702188090501D5452100E0652184
:100FA000A0F1010800F8011C09980FA9A1EB08079E
:100FB000FF1D00B10120411901EBEA70A16938441D
:100FC000081A401EA0612078C00602D42046FFF710
:100FD000D9F9099828B1D4E901219047206A401C29
:100FE00020622078C00622D52046FFF7CBF91EE00C
:100FF000002E04DBB34502DD01A8805D00E0302057
:10100000D4E901219047206A401C2062761CAAF195
:1010100001005FEA000A0AD100F03AF9C0680168ED
:10102000405CD4E901219047206A401C2062281EC0
:10103000A5F10105DCDC07E0D4E9012118F8010B7A
:101040009047206A401C2062381EA7F10107F3DC9C
:101050002046FFF7ADF9032011B041E601694A1CB3
:1010600002610878704700B58FB0CDE901310021E9
:10107000059105497944CDE9031011466846FFF70B
:1010800057FA0FB000BD0000E5FFFFFF0A6802F845
:10109000010B0A60704710B5436913B1AFF30080CC
:1010A00001E0FFF796F9012010BD127800F124014C
:1010B0000A7000224A700122EDE711684FF0FF32FA
:1010C000E9E70000074B70B50D467B44FFF7CBFF07
:1010D0000446284600F0F2F910B14FF0FF3070BD21
:1010E000204670BDDBCA00002DE9FF5F15468A4629
:1010F0000446DFF8AC80F8440027D8E900103E46EB
:10110000CDE9001010E03AF816106A4602A800F087
:10111000D9F9411C07D02178890603D5E26939182D
:1011200091420DD80744761C2078800602D5E069EC
:10113000B84205DDAE42E6DB3AF816000028E2D1FF
:10114000A069C01BA0612046FFF71CF9D8E9001078
:10115000CDE90010002017E03AF818106A4602A8FE
:1011600000F0B0F9B0F1FF3F81460BD000250DF142
:10117000080B05E0D4E901211BF8050090476D1C20
:101180004D45F7D308F10100B0428046E4DB206A08
:10119000384420622046FFF70BF9BDE8FF9F0000AE
:1011A00066A302002DE9F0418046D21D22F007021D
:1011B0000025D2E90002F52915A614D0011E72F10E
:1011C000000106DA0023D0EB030063EB020211A654
:1011D00008E0D8F800108B0701D50FA602E04907F8
:1011E00001D50EA601251146002408F1240704E0CC
:1011F00000F056F830323A55641C50EA0102F7D13B
:101200002B46324621464046BDE8F041FFF7AABCD6
:10121000000000002D0000002B0000002000000056
:1012200030B4002100F1240408E002F00705D208E0
:10123000303542EA4372DB086554491C52EA030523
:10124000F3D10468002310A2250707D5A40600D413
:1012500021B1C46901230DA2641EC46130BCFFF733
:1012600081BC10B5044621461068FFF772FC0246A7
:101270002046BDE810400023D2E7D21D22F007012E
:10128000D1E90023CCE7000000000000300000009E
:101290000048704704C7002000487047E4C600209B
:1012A00030B5B0F10A024FEA900E71F100034EEA38
:1012B000817EB0EB0E0061EB91014FEA101E4EEA09
:1012C000017E10EB0E0041EB11114FEA102E4EEA99
:1012D000016E10EB0E0041EB11214FEA104E4EEA69
:1012E000014E10EB0E0041EB1141401841F100019D
:1012F0004FEAD00040EA41704FEAD10110EB80057F
:101300004FEA810444EA907444EB01046D1944EB04
:101310000404521BA3414FF0000348BF0A3200D51A
:1013200030BD401C41F1000130BD00002DE9F0410D
:101330001F46044603260168072A01F4006004DB07
:1013400008B116A505E016A503E008B115A500E053
:1013500015A521F010002060A069C01EA0610FB18A
:10136000401EA0612046FFF70DF84FB1D4E90121DE
:1013700038469047206A401C2062C01C206206E06C
:10138000206AFAE7D4E9012115F8010B9047761E8F
:10139000F8D22046FFF70CF8BDE8F0814E414E0030
:1013A0006E616E00494E4600696E660010B5436975
:1013B00013B1AFF3008001E0FFF796FE012010BDEE
:1013C000128800F1240182840022C2840122EDE708
:1013D00011684FF0FF32E9E72DE9F04781461646E4
:1013E0008AB0354878440DC88DE80D0032487844FD
:1013F000801C03AC0DC884E80D0041F69B30084406
:10140000372190FBF1F290FBF1F5A5F1800501FB8E
:1014100012041B3C02D56442012000E00020DFF8EA
:1014200098A080460027FA44AAF1BE0A0EE0E00721
:101430000AD03246684607EB470101230AEB8101D7
:1014400000F023FB8DE8070064107F1C002CEED118
:10145000194F7F44AE3F19E0E80715D007EB0410A1
:101460000DF1180A90E80E008AE80E00C068F042FC
:1014700001D1981908903246012306A903A800F06B
:1014800004FB03AB83E807006D10641C002DE3D15F
:101490004FF0010332466946B8F1000F03A802D0AD
:1014A00000F0DEFA01E000F0F0FAC9E90001C9F845
:1014B00008200AB0BDE8F08704A10200007B00F01C
:1014C0008000704770B516460C460546FFF7AEFA29
:1014D000036893F80101012806D0FF2C0FD8185D8E
:1014E00068B101202C7070BDD3F807013246214647
:1014F00003F2071303442846BDE8704018474FF035
:10150000FF3070BD00487047E4C600207546FFF705
:10151000F9FFAE4605006946534620F007008546B0
:1015200018B020B5FEF7B6FEBDE820404FF000062B
:101530004FF000074FF000084FF0000B21F00701BB
:10154000AC46ACE8C009ACE8C009ACE8C009ACE8FE
:10155000C0098D46704710B50446AFF300802046A1
:10156000BDE81040FEF781BE5FEA400C08BF91F075
:10157000000F4FEA8C234FEAC12243EA51514FEA50
:101580001C5018BF00F5F0404FEA300018BF41F082
:1015900000415FEA6C5C00F02980BCF1FF3F08BFAE
:1015A00040F080407047130C06BF12044FF0100C3F
:1015B0004FF0000C130E04BF12020CF1080C130FB5
:1015C00004BF12010CF1040C930F04BF92000CF144
:1015D000020CD30F04BF52000CF1010C11464FF066
:1015E0000002A0F11F00A0EB0C00704711F0004FAB
:1015F00008BF704731F000413FF4D5AF0B0C06BF78
:1016000009044FF0100C4FF0000C0B0E04BF090240
:101610000CF1080C0B0F04BF09010CF1040C8B0F2B
:1016200004BF89000CF1020CCB0F04BF49000CF180
:10163000010CCCF12003A0EB0C0022FA03F302FA18
:101640000CF241EA030100F10100704720F07F4CE9
:1016500080EA030023F07F47ACEB070303F57C53DC
:1016600000F0004003F1FF032DE980494FEA154BDC
:1016700009B44FEA144325EA0B4E24EA03480FF25B
:10168000042606EB132749083E785FEA320203FB83
:101690000667C7F5000707FB06F64FEA54374FEA1F
:1016A000D64606F1020607FB066CCCF1005C4FEA59
:1016B0001C472CEA074C07FB06F40CFB06F504EB71
:1016C00015464FEA961634BF00204FF000404FEA0F
:1016D000D13706FB07FC4FEA1C4C0CFB0BF7D21B67
:1016E00003FB0CF761EB07010CFB0EF7B0EB0740B7
:1016F00072EB17420CFB08F734BFA2EB0742B2EBC8
:10170000074261EB17414FEA0C444FEA910706FB91
:1017100007FC4FEA1C4C0CFB0BF7B0EBC74072EB1D
:10172000573203FB0CF734BFA2EBC742B2EBC74200
:1017300061EB57310CFB0EF7B0EBC70072EB577241
:101740000CFB08F734BFA2EBC702B2EBC70261EB98
:101750005771039F4FEA816141EA921104EBCC0477
:101760004FEAD1374FEA826206FB07FC42EA901249
:101770004FEA80604FEA1C4C0CFB0BF7D21B03FBBB
:101780000CF761EB07010CFB0EF7B0EB074072EBB7
:1017900017420CFB08F734BFA2EB0742B2EB07423B
:1017A00061EB17414FEA8C554FEA910704EB9C24FB
:1017B00006FB07FC4FEA1C4C0CFB0BF7B0EBC740D9
:1017C00072EB573203FB0CF734BFA2EBC742B2EB0C
:1017D000C74261EB57310CFB0EF7B0EBC70072EB61
:1017E00057720CFB08F734BFA2EBC702B2EBC7027B
:1017F00061EB577115EB4C254FEA816141EA92117B
:101800004FEA82624FEAD13742EA901206FB07FCA8
:1018100044F100044FEA80604FEA1C4C0CFB0BF7CC
:10182000D21B03FB0CF761EB07010CFB0EF7B0EBCF
:10183000074072EB17420CFB08F734BFA2EB0742DC
:10184000B2EB074261EB174115EB1C154FEA8131F2
:1018500041EA92414FEA823242EA90424FEA8030B6
:101860004FEA0C7644F1000448EA03434EEA0B4881
:101870004FF0000EB2EB080C71EB030724BF624679
:1018800039464EEB0E0E4FF0000B00185241494105
:101890004BEB0B0BB2EB080C71EB03077BF1000B6E
:1018A00024BF624639464EEB0E0E4FF0000B001877
:1018B000524149414BEB0B0BB2EB080C71EB0307A8
:1018C0007BF1000B24BF624639464EEB0E0E51EA07
:1018D000020718BF46F0010616EB0E7655F100021E
:1018E00054F1000103D5BDE88901BDE80088BDE8D9
:1018F0008901BDE80048B619524141EB0101A3F14D
:101900000103704780807F7E7D7C7B7A7978777653
:1019100076757473727171706F6E6E6D6C6C6B6ACC
:101920006A6968686766666564646363626161606A
:10193000605F5F5E5E5D5D5C5C5B5B5A5A595958E7
:101940005857575656555555545453535252525151
:10195000515050504F4F4F4E4E4D4D4D4C4C4C4BA7
:101960004B4B4A4A4A4949494848484747474746EE
:10197000464645454544444444434343434242422A
:1019800042414141002B9C4630D477002BD01CB5FE
:101990004FEA370703B44FF010004FF01001BAF1CF
:1019A000000F06D0BCF1000FDCBF40F0080040F093
:1019B00008014FF000000FBCBDE810400BF1010B17
:1019C000BBF1010F08BF5FEA170722BF12F1010246
:1019D00011F101014FF0004143F1000300F000401C
:1019E00043EA00007047F9D35708D0E746EA0646B5
:1019F00013F1400F4FEA16461FDD13F1200FDFBF32
:101A000016430A46002120335B42BED0C3F12007B3
:101A100046EA064602FA07F74FEA164646EA07067E
:101A2000C3F1200722FA03F201FA07F721FA03F1C2
:101A30004FF0000342EA0702A7E746EA020646EA39
:101A400006464FEA164646EA0106BCBF46EA064687
:101A5000360C4FF000034FF000024FF0000194E706
:101A60002DE9804C9A46934670B491E8380007C837
:101A700031EA400C48BF34EA430C03D5FFF7E6FDDA
:101A8000FFF780FFF0BCBDE8008C2DE9804C9A4642
:101A9000934670B491E8380007C810F0804F08BF33
:101AA00013F0804F03D100F005F8FFF76BFFF0BC97
:101AB000BDE8008C20F07F4780EA030023F07F4CD4
:101AC00007EB0C03A3F57C5300F00040A3F1FE03E9
:101AD00092F0000F00F0B38095F0000F00F07780D7
:101AE0002DE901494FEA11404FEA144621EA004826
:101AF00000FB06FC24EA064708FB06F607FB08F88D
:101B000000FB07F718EB06484CEB164C4FEA124B5C
:101B100018EB07484FEA15464CEB174022EA0B4EEC
:101B20000BFB06FC25EA06470EFB06F607FB0EFE3E
:101B30000BFB07F71EEB064E4CEB164C4FF0000666
:101B40001EEB074E4CEB174B18EB0B0840F1000057
:101B500018EB0E0B58EB000840F100008F1A4FF005
:101B600000013CBFC943661B14BFB5EB040C002148
:101B70003CBFC943F61B4FEA17444EEA8E0E27EAD4
:101B800004454FEA1C4704FB07622CEA074C05FB9F
:101B900007F70CFB05F604FB0CFC16EB074642EBC3
:101BA000174216EB0C4642EB1C421BEB060658EBA9
:101BB0000202414146EA9E0601D5BDE80189B619F7
:101BC000524141EB0101A3F10103BDE801894FEA54
:101BD00014454FEA114724EA054621EA074C05FB64
:101BE00007F406FB07F70CFB06F105FB0CFC11EBF9
:101BF000074144EB17444FEA124711EB0C4144EB09
:101C00001C4422EA074C05FB07F206FB07F70CFB16
:101C100006F605FB0CFC16EB074642EB174216EBEB
:101C20000C4642EB1C456A1854F1000148BF70474E
:101C3000B619524141EB0101A3F10103704795F040
:101C4000000F37D04FEA11424FEA144721EA02460B
:101C500024EA074C02FB07F106FB07F70CFB06F42E
:101C600002FB0CFC14EB074441EB17414FEA15470C
:101C700014EB0C4441EB1C4125EA074C02FB07F531
:101C800006FB07F70CFB06F602FB0CFC16EB0746FF
:101C900045EB174516EB0C4645EB1C42121951F16A
:101CA000000148BF7047B619524141EB0101A3F151
:101CB000010370474FEA14454FEA114724EA0546ED
:101CC00021EA074C05FB07F106FB07F70CFB06F2C0
:101CD0004FF0000605FB0CFC12EB074241EB1741ED
:101CE00012EB0C4251EB1C4148BF7047921841EB7C
:101CF0000101A3F10103704710B501F0FDFA10BD19
:101D000070B506460C46154608E03046721C96B281
:101D100000F007F804F8010B681E85B2002DF4D11D
:101D200070BD70B50446002601F09AFB2546E11708
:101D300004EB11610912A02202EB4101C8B201F0CB
:101D400055FB01F0D9FBE11704EB11610912A4EB7B
:101D50000121C8B201F04AFB01F0CEFB01F080FB8B
:101D6000A12001F043FB01F0C7FB002001F006FBBE
:101D7000064601F09BFB304670BD70B505460C462B
:101D8000164606E02178284600F009F8681C85B25E
:101D9000641C301EA6F101018EB2F3D170BD70B586
:101DA00004460E4601F05CFB2546E11704EB116189
:101DB0000912A02202EB4101C8B201F017FB01F0A9
:101DC0009BFBE11704EB11610912A4EB0121C8B2DE
:101DD00001F00CFB01F090FB304601F007FB01F035
:101DE0008BFB01F063FB0A200AF090FD70BD10B57B
:101DF000012006F029FA002006F026FA10BD0000A6
:101E000008B501460020009003480090009808445F
:101E100000900098008808BD006C004008B50022C2
:101E20000092044A0092009A02440092009A1160C3
:101E300008BD0000006C004000BFFEE710B50520A3
:101E40000AF08AFD10BD000010B500200F4908609F
:101E50000F48006820F0F0000D490860084600684F
:101E600040F030000860FFF7E9FF00200949C1F8A1
:101E7000A401FFF7E3FF012004490860FFF7DEFF3C
:101E800000200549C1F8840110BD00008481214271
:101E9000041C0140008023420080214208B501213A
:101EA000882006F0B1F90220ADF8000010208DF86E
:101EB000030003208DF8020069460A4800F0BCFECA
:101EC0000221084800F04EFF4FF40070ADF800000A
:101ED0006946054800F0B0FE4FF40071024800F07A
:101EE00041FF08BD000C0140001C014010B500205E
:101EF0000F4908600F48006820F0F0000D490860A5
:101F00000846006840F030000860FFF797FF0120A6
:101F10000949C1F8A401FFF791FF012004490860B5
:101F2000FFF78CFF00200549C1F8840110BD0000B7
:101F300084812142041C0140008023420080214210
:101F400070B5054600241648006820F0F0001449DA
:101F500008600846006840F0800008601E200AF013
:101F6000FBFC002611E000200E490860FFF766FF29
:101F700001200D49C1F884016006040E0B48006879
:101F800008B1601CC4B2701CC6B2082EEBDB15B9D8
:101F9000FFF7ACFF01E0FFF757FF204670BD0000E0
:101FA000041C01408481214200802142248123427B
:101FB00070B504461348006820F0F000114908602D
:101FC0000846006840F03000086000200E490860B4
:101FD000FFF734FF002511E0E0090C4908606006B6
:101FE000040E01200A49C1F88401FFF727FF0020F1
:101FF00005490860FFF722FF681CC5B2082DEBDB1E
:1020000070BD0000041C014084812142A481234250
:102010000080214210B50F48006820F0F0000D4903
:1020200008600846006840F03000086001200A4956
:1020300008600A49C1F884011E200AF08DFC0020C6
:1020400005490860FFF7FAFE00200449C1F8840141
:1020500010BD0000041C0140A481234200802142E5
:1020600010B50D48006820F0F0000B4908600846E4
:10207000006840F0300008600120084908601E2018
:102080000AF06AFC00200649C1F8A401FFF7D6FE59
:1020900001200449086010BD041C014084812142D4
:1020A00000802342A481234210B500241348006815
:1020B00020F0F000114908600846006840F08000F8
:1020C000086001200E4908600E49C1F88401FFF73D
:1020D000B5FE09E0601CC4B2FA2C03DDFFF7C0FFB7
:1020E000012010BDFFF7AAFE0548803800680028CF
:1020F000F0D10549086000BFF3E70000041C01406F
:10210000A4812342008021428481214270B50025B0
:102110004FF4803404E0802006F010FC00B103E0AE
:10212000201EA4F10104F6D100BF0CB9032070BD3C
:1021300040F2FF5006F0BCFB2846F8E770B50446B5
:1021400005E01548456B05F0450000B100E0F8E7F3
:1021500000BF042006F0F2FB20B1042006F0A8FB2B
:10216000032070BD012006F0E9FB20B1012006F03C
:102170009FFB0120F5E708480069A04201D010202C
:10218000EFE740F2FF5004498863084640690821A0
:102190000840C0B2E5E700000080014070B50026AD
:1021A0004FF4803505E01148446B04F0450000B160
:1021B00003E0281EA5F10105F5D100BF15B104F01B
:1021C000040028B10326042006F072FB304670BDDF
:1021D000012006F0B3FB18B10126012006F068FBD0
:1021E00040F2FF5006F064FB3046F0E7008001400B
:1021F00010B505E00B48446B04F0450000B100E069
:10220000F8E700BF042006F099FB20B1042006F097
:102210004FFB032010BD40F2FF5006F049FB0020A9
:10222000F8E70000008001402DE9F04105460E4628
:102230004FF0000805E01F48476B07F0450000B16C
:1022400000E0F8E700BF042006F078FB28B1042086
:1022500006F02EFB0320BDE8F081012006F06EFBA6
:1022600020B1012006F024FB0120F4E711480069A9
:10227000A84201D01020EEE740F2FF5006F018FB14
:102280000C48446904F4604018B9200C3080404682
:10229000E1E704F4005008B11320DCE704F48040C7
:1022A00008B11020D7E704F4004008B10F20D2E7AE
:1022B0004046D0E70080014070B500264FF48035DD
:1022C00005E00F48446B04F0450000B103E0281E10
:1022D000A5F10105F5D100BF15B104F0040028B146
:1022E0000326042006F0E4FA304670BD04F04000F6
:1022F00018B10026402006F0DBFA3046F5E7000072
:102300000080014010B500241548006820F470409A
:10231000134908600846006840F40040086004E083
:10232000601CC4B201200AF017FB0E48006808B117
:10233000642CF5DB642C01DB012010BD002404E0DB
:10234000601CC4B201200AF007FB0648006808B907
:10235000642CF5DB642C01DB0120EEE70020ECE7C8
:10236000041801402C01234208B50121402005F04A
:102370004BFF4FF40060ADF8000010208DF8030013
:1023800003208DF802006946064800F055FC4FF422
:102390000061044800F0E6FC00F068F8FFF7B2FFC7
:1023A00008BD00000018014010B5002404E0601CC6
:1023B000C4B201200AF0D0FA0D48006808B1642CBC
:1023C000F5DB002404E0601CC4B201200AF0C4FA6A
:1023D0000748006808B9642CF5DB28200AF0BCFA2D
:1023E0000348006808B1012010BD0020FCE7000090
:1023F0002C01234270B50024002506E06006040E7F
:10240000FFF7D2FF0443681CC5B2082DF6DB204657
:1024100070BD7CB505460E4600F028F8FFF772FF48
:10242000F8B9002405E0FFF7E5FF0DF80400601C93
:10243000C4B2052CF7DB9DF800009DF8011008449C
:102440009DF8021008449DF8031008449DF80410FC
:10245000884208D19DF8000030709DF80200287075
:1024600001E001207CBD0020FCE7000010B50C4815
:10247000006820F470400A4908600846006840F48B
:102480004050086000200749086014200AF03EFA16
:1024900001200549C1F8AC011E200AF05DFA10BD0B
:1024A00004180140AC0123420000234221B102681C
:1024B00042F00102026004E002684FF6FE731A4027
:1024C0000260704701684FF6FE7211400160002102
:1024D000016041608160C1604B49884208D14A492E
:1024E0000839496841F00F01474A083A51608AE0CB
:1024F00045491431884208D143490839496841F0B7
:10250000F001414A083A51607DE03F492831884254
:1025100008D13D490839496841F470613A4A083A9E
:10252000516070E038493C31884208D13649083959
:10253000496841F47041344A083A516063E03249D5
:102540005031884208D130490839496841F4702136
:102550002D4A083A516056E02B496431884208D12F
:1025600029490839496841F47001274A083A5160FD
:1025700049E025497831884208D12349083949681A
:1025800041F07061204A083A51603CE01F4988429E
:1025900006D1011F096841F00F01021F116032E0EE
:1025A0001A491431884208D11849091F096841F0B5
:1025B000F001164A121F116025E0144928318842A3
:1025C00008D11249091F096841F470610F4A121FAE
:1025D000116018E00D493C31884208D10B49091FB0
:1025E000096841F47041094A121F11600BE0074964
:1025F0005031884207D10549091F096841F470210B
:10260000024A121F1160704708000240080402408D
:1026100010B50022026847F6F0739A430C6A8B6883
:1026200023430C6923434C6923438C692343CC69BE
:1026300023434C6A23438C6A23431A430260CB68CA
:1026400043600B6883604B68C36010BD7047000037
:1026500051B18200A2F1C042126842F0010382002F
:10266000A2F1C042136009E08200A2F1C0421268E8
:10267000034B1A408300A3F1C0431A607047000067
:10268000FEFF0F00D0E901121143C2681143026935
:1026900011434269114382691143C2691143026ABD
:1026A0001143426A1143826A1143C26A1143026BA9
:1026B000114302689200A2F1C042116081680829AA
:1026C0000BD101688900A1F1C041096841F04002C5
:1026D00001688900A1F1C0410A60416B0968426B41
:1026E000526841EA0211426B926841EA0221426B50
:1026F000928941EA0241426B128A41EA0251426BDD
:10270000127D41EA0261426B926911430268521CD8
:102710009200A2F1C0421160C16AB1F5804F1BD195
:10272000816B0968826B526841EA0211826B926880
:1027300041EA0221826B128A41EA0251826B127DC8
:1027400041EA0261826B9269114302689200A2F130
:10275000C042C2F8041107E06FF0704201688900BE
:10276000A1F1C041C1F80421704700001CB501214E
:10277000802005F049FD4FF40060ADF80000102006
:102780008DF8030003208DF8020069462D4800F003
:1027900053FA02212B4800F0E5FA4FF48060ADF8BF
:1027A000000048208DF803006946264800F044FAEE
:1027B0004FF48061234800F0D5FAFFF76FFB00204B
:1027C0002149086014200AF0A1F801201F49C1F82E
:1027D000AC0132200AF09AF800208DF804000122A2
:1027E00001A900F035F9012201A9A42000F030F977
:1027F00016208DF80400012201A9802000F028F99C
:102800000C208DF80400012201A9882000F020F995
:10281000022201A9A12000F021F89DF8040030282F
:102820000ED19DF8050003280AD19DF805009DF8FA
:10283000042000EB022106A0FDF782FD00201CBD54
:102840000120FCE7001C0140AC81234200802342B0
:102850004354502049443A25780D0A002DE9F041AF
:1028600006460F461546FFF7D5FB7020FFF7A0FB85
:10287000FFF71AFCF0B2FFF79BFBFFF715FCFFF721
:10288000C9FB7120FFF794FBFFF70EFC00240BE05F
:10289000691EA14201D0012100E000210846FFF796
:1028A0004FFB3855601CC4B2AC42F1DBFFF7D8FBDC
:1028B000BDE8F08171B581B0002400266148007840
:1028C000401C60490870084600780A2190FBF1F22C
:1028D00001FB120018B15B4800780A2867DA012270
:1028E00001A90220FFF7BAFF9DF8040000F00F00D5
:1028F00000287ED09DF8040000F00F00062878DA4A
:102900009DF8040000F00F01FF208840C5B2E843A5
:10291000C0B240F0C0004C4981F8200000245AE0C9
:10292000494890F820000121A1400840F0B34749F0
:1029300031F8140004226946FFF790FF424890F8EE
:10294000300000F00100C0B19DF801009DF80010BA
:1029500001F00F0100EB01203B49163121F8140072
:102960009DF803009DF8021001F00F0100EB01211A
:1029700035480C3020F814101DE09DF801009DF83A
:10298000001001F00F0100EB0120C0F5F07081B2E2
:102990002D480C3020F814109DF803009DF802100B
:1029A00001F00F0100EB0121274801E011E020E0D8
:1029B000163020F814109DF8000000F0F000802878
:1029C00007D000212048163020F814100A3820F8CB
:1029D0001410601CC4B2052CA2DB01261A488089A1
:1029E00020B91948C08A08B9002001900020154973
:1029F00008709DF8040000F01F00D0B9124890F84C
:102A0000200000F0800040B10F4890F8200020F036
:102A100080000D4981F820000BE04FF6FF700A4955
:102A20008881C882084690F8200000F0E00081F814
:102A3000200004480078F02802DD0A2001490870CF
:102A400030467CBD380000203C0000207059010851
:102A50002DE9F04105460E4617464FF00008FFF7F6
:102A6000D9FA7020FFF7A4FAFFF71EFBE8B2FFF7D0
:102A70009FFAFFF719FB00240BE0305DFFF798FA8F
:102A8000FFF712FB8046B8F1000F00D003E0601C96
:102A9000C4B2BC42F1DB00BFFFF7E2FA4046BDE83A
:102AA000F08100002DE9FC4107460D460026002478
:102AB00000200090019008205B49086010204860C9
:102AC000402088600020C8604FF48060086108469C
:102AD00005F06AFF1020FFF731FB044614B12046D1
:102AE000BDE8FC815148008800044F490860372048
:102AF0004860402088600020C8604FF48060086112
:102B0000084605F051FF3720FFF718FB04460CB1CB
:102B10002046E5E74FF0FF3045490860082048604F
:102B2000302088600220C8600020086101204861D0
:102B3000084605F0D9FE00203B4908603320486074
:102B4000402088600020C8604FF48060086108461B
:102B500005F02AFF3320FFF7F1FA04460CB12046B6
:102B6000BEE70CE04FF4001005F0E8FE38B105F0C8
:102B700015FF4DF82600761C022E00D306E02D48E6
:102B8000406B40F22A6108400028EBD000BF0820CB
:102B900005F0D4FE20B1082005F08AFE04209FE74E
:102BA000022005F0CBFE20B1022005F081FE0220BC
:102BB00096E7202005F0C2FE20B1202005F078FE27
:102BC00006208DE74FF4007005F0B8FE28B14FF4F1
:102BD000007005F06DFE072082E740F2FF5005F01F
:102BE00067FE00980006009901F47F4140EA012049
:102BF000009901F47F0140EA1120009940EA116038
:102C0000686001980006019901F47F4140EA0120C3
:102C1000019901F47F0140EA1120019940EA116015
:102C2000286020465CE70000D80100202C0000202E
:102C3000EC010020008001402DE9F0410246002512
:102C40000026002000230024002791F803C00CF088
:102C50000F0591F803C00CF0100CBCF1000F03D06D
:102C600091F802C04CEA050591F800C0BCF1000FD4
:102C700031D0146800202BE04FF0010C0CFA00F367
:102C8000B1F800C00CEA03069E4220D183004FF049
:102C90000F0C0CFA03F7BC4305FA03FC4CEA0404DE
:102CA00091F803C0BCF1280F06D14FF0010C0CFACB
:102CB00000FCC2F814C00AE091F803C0BCF1480F50
:102CC00005D14FF0010C0CFA00FCC2F810C0401CFA
:102CD0000828D1D31460B1F800C0BCF1FF0F34DD77
:102CE000546800202EE000F1080C4FF0010808FAAB
:102CF0000CF3B1F800C00CEA03069E4221D1830018
:102D00004FF00F0C0CFA03F7BC4305FA03FC4CEA36
:102D1000040491F803C0BCF1280F05D100F1080CA0
:102D200008FA0CF8C2F8148091F803C0BCF1480FFF
:102D300007D100F1080C4FF0010808FA0CF8C2F8AE
:102D40001080401C0828CED35460BDE8F0810246B4
:102D5000002093680B400BB1012000E00020704779
:102D600041617047016170470EB50121802005F077
:102D70004BFA4FF40060ADF8000010208DF803000E
:102D800003208DF8020069463A48FFF755FF0221FB
:102D90003848FFF7E7FF4FF48060ADF800004820A7
:102DA0008DF8030069463348FFF746FF4FF4806112
:102DB0003048FFF7D7FFFFF771F800202E49086071
:102DC0000A2009F0A3FD01202C49C1F8AC010A201A
:102DD00009F09CFD4FF48060ADF8000028208DF8CC
:102DE000030069462348FFF727FF4FF4806121481D
:102DF000FFF7B6FF642009F089FD042201A948F21B
:102E0000401000F051F800208DF8080001A91CA026
:102E1000FDF796FA1DA101A8FDF7C4FD40BB0220F5
:102E20008DF80400012201A948F2400000F09CF94D
:102E3000012201A948F2470000F036F89DF804008D
:102E4000602807DA9DF8041012A0FDF779FA012036
:102E500000F05CF90A2009F059FD00208DF804000B
:102E6000012201A948F2400000F07EF900200EBDC9
:102E70000120FCE7001C0140AC812342008023427A
:102E80004354502049443A25730D0A0039313437F0
:102E90000000000044656661756C74205665723AE6
:102EA00025640D0A000000002DE9F04105460F469B
:102EB0001646FFF7AFF82820FFF77AF8FFF7F4F887
:102EC0002812FFF775F8FFF7EFF8E8B2FFF770F890
:102ED000FFF7EAF8FFF79EF82920FFF769F8FFF7F8
:102EE000E3F800240BE0711EA14201D0012100E0B3
:102EF00000210846FFF724F83855601CC4B2B442DC
:102F0000F1DBFFF7ADF8BDE8F081000071B583B0EB
:102F10000024002679480078401C7849087008464B
:102F200000780A2190FBF1F201FB120018B17348FE
:102F300000780A287EDA012203A948F24E10FFF732
:102F4000B3FF9DF80C0000F0800068B19DF80C0004
:102F500000F00F00062807DA00200190012201A9E5
:102F600048F24E1000F000F99DF80C0000F00F0040
:102F700000285FD09DF80C0000F00F000628D9DA79
:102F80009DF80C0000F00F01FF208840C0B20190B6
:102F90005B4890F820509DF80400C043C0B240F058
:102FA000C000574981F82000084681898182C18A82
:102FB000C183002446E0524890F820000121A1403E
:102FC000084020B34F4931F81400042202A9FFF74A
:102FD0006BFF4B4890F8300000F00100C0B19DF845
:102FE00008009DF8091000EB012081B2444816301A
:102FF00020F814109DF80A009DF80B1000EB01203A
:10300000C0F5487081B23E480C3020F8141017E02B
:103010009DF808009DF8091000EB012081B23848A6
:103020000C3020F814109DF80A009DF80B1000EBEE
:10303000012000E036E081B23148163020F814104B
:10304000601CC4B2052CB6DB01262D4880892E49B0
:103050000988884205DC2A48C08A2B494988884269
:103060001DDD9DF80C0000F00F0001280ADD24484A
:10307000C089234988810846008BC88200201F49E7
:1030800008700FE01E48808A1D4988810846C08B61
:10309000C88280200390084680F8205002E000207B
:1030A000164908709DF80C0000F08F0080281AD196
:1030B000134890F8200000F0800040B1104890F8CC
:1030C000200020F080000E4981F820000BE04FF630
:1030D000FF700B498881C882084690F8200000F0F4
:1030E000E00081F8200005480078F02802DD0A2081
:1030F00002490870304604B070BD0000390000205D
:103100003C000020325A0108B001002038B50546C5
:10311000002400208DF800008DF8015000BF09E068
:103120009DF800000F49095D0844C0B28DF8000009
:10313000601CC4B2B82CF3D39DF80000C043401CFF
:10314000C0B28DF80000B822064948F2470000F0EE
:103150000BF80222694648F2FF0000F005F8002053
:1031600038BD00007A5901082DE9F04104460E46A9
:1031700017464FF00008FEF74DFF2820FEF718FF16
:10318000FEF792FF2012FEF713FFFEF78DFFE0B26D
:10319000FEF70EFFFEF788FF00250BE0705DFEF7DF
:1031A00007FFFEF781FF8046B8F1000F00D003E073
:1031B000681CC5B2BD42F1DB00BFFEF751FF4046BF
:1031C000BDE8F0812DE9F05F82460F4614462046A7
:1031D000E21704EB5272D2102146E31704EB53734B
:1031E000DB10A4EBC3030BB1012300E000231A445E
:1031F000624302F0FF099AF800600AF1010082467A
:103200000578812E05DB402D03DBFF2D01D0FF2E3D
:103210000DD14FF0000B06E0002007F8010B0BF179
:10322000010000F0FF0BCB45F6DBBDE8F09F7F2DE2
:1032300003DAA5F14000C5B202E0A5F14100C5B234
:10324000A6F18100C6B2BE2000FB065000FB09F8C3
:103250000C2C04D0102C0CD0182C1ED113E01048CC
:10326000D0F8090000EB08014A46384608F0A2FCF5
:1032700013E00B48D0F8110000EB08014A4638462D
:1032800008F098FC09E00648D0F8190000EB0801A6
:103290004A46384608F08EFC00BF00BF00BFC4E7B6
:1032A000C0C6002000BFFEE710B500200F4908602F
:1032B0000F48006820F070400D490860084600681B
:1032C00040F04050086000200A49C1F89C010220EB
:1032D00009F042FB012005490860022009F03CFB8F
:1032E00000200449C1F8980110BD000098812142D6
:1032F000000C01400080214208B50121082004F0A3
:1033000083FFC020ADF8000010208DF803000320DB
:103310008DF8020069460448FFF78EFCC021024880
:10332000FFF720FD08BD0000000C014010B5002093
:103330000F4908600F48006820F070400D49086090
:103340000846006840F04050086001200A49C1F872
:103350009C01022009F000FB0120054908600220C1
:1033600009F0FAFA00200449C1F8980110BD0000E4
:1033700098812142000C01400080214270B5054631
:1033800000241748006820F070401549086008467E
:10339000006840F000400860002616E00020114957
:1033A0000860022009F0D8FA01200F49C1F89801FD
:1033B0006006040E0B487C38006808B1601CC4B27B
:1033C000012009F0C9FA701CC6B2082EE6DB15B957
:1033D000FFF7ACFF01E0FFF767FF204670BD00007C
:1033E000000C0140988121420080214270B50446C2
:1033F0001848006820F070401649086008460068C8
:1034000040F04050086000201349086000251EE08D
:10341000E00920B101201049091D086003E00020E7
:103420000D49091D08606006040E022009F094FA97
:10343000012009490860022009F08EFA002007499E
:10344000C1F89801022009F087FA681CC5B2082D5E
:10345000DEDB70BD000C01409881214200802142DA
:1034600010B50F48006820F070400D49086008460C
:10347000006840F04050086001200A4908600A498D
:10348000C1F89801042009F067FA00200549086096
:10349000042009F061FA00200349C1F8980110BD29
:1034A000000C01409C8121420080214210B50F4850
:1034B000006820F070400D4908600846006840F040
:1034C0004050086000200A4908600A49C1F89C0180
:1034D000042009F041FA0120054908600549C1F8B6
:1034E0009C01042009F038FA10BD0000000C0140D6
:1034F000988121420080214210B5002414480068C0
:1035000020F07040124908600846006840F0004012
:10351000086001200F49086009F01EFA01200E49D9
:10352000C1F8980109F018FA07E0601CC4B2FA2C3F
:1035300003DDFFF7BBFF012010BD0648803800689F
:103540000028F2D10349091F086000BFF4E700001A
:10355000000C01409C8121420080214272B67047DC
:1035600062B670471CB504460020019000902148C7
:1035700000880004204908600D20486040208860D1
:103580000020C8604FF480600861084605F00CFA1E
:103590001A48406B009002E01848406B0090009879
:1035A00000F045000028F7D0012005F0C7F920B150
:1035B000012005F07DF901201CBD042005F0BEF9B5
:1035C00020B1042005F074F90320F5E70B480069E9
:1035D0000D2801D01020EFE740F2FF5005F068F908
:1035E0000648406901900198C0F3432020700020F4
:1035F000E2E700002C000020D801002000800140FC
:103600000146CA1701EB92729210A1EB820292B9A5
:10361000642091FBF0F200FB121050B94FF4C87017
:1036200091FBF0F200FB121008B901207047002056
:10363000FCE70120FAE70020F8E7000008B50121C7
:10364000442004F0E1FD1C20ADF8000048208DF876
:10365000030069460648FFF7EFFA0120ADF80000C5
:1036600028208DF8030069460248FFF7E5FA08BDF7
:10367000001801400008014010B5044614B10120B3
:103680002C4908702B480078002837D010212A4890
:10369000FFF75DFB78B108212748FFF758FB50B1D1
:1036A00004212548FFF753FB28B101212348FFF7E8
:1036B0004EFB012822D10A2009F028F900201D49DB
:1036C000087010211C48FFF742FB08B9012010BD0B
:1036D00008211948FFF73BFB08B90220F7E704214E
:1036E0001548FFF734FB08B90320F0E70121134820
:1036F000FFF72DFB01281BD10420E8E710210E481D
:10370000FFF725FB012813D108210B48FFF71FFB0A
:1037100001280DD104210848FFF719FB012807D122
:1037200001210648FFF713FB10B901200149087079
:103730000020CCE71E0000200018014000080140D6
:1037400070B504460026174805884088454315484B
:10375000808846F60401884216D1124880790128F3
:1037600012D100200F4988712A2048812B2088819E
:103770000021084604F08AF801200A4988712B20AC
:1037800048812A20888103E00021084604F07EF861
:1037900004F0CCFA002602E003480480761CAE4216
:1037A000FAD370BDB00100200008006C10B50446CB
:1037B000002C66D16C498871F02008804FF4A0700D
:1037C00048800846808849F2413188420BD06648DB
:1037D000808846F60401884205D06348808845F217
:1037E000103188421AD12C205F4908812A20488153
:1037F0002B2088810846808846F60401884205D03F
:103800005948808845F21031884206D14FF4A070A3
:10381000554908804FF4F0704880A1E052488088F4
:1038200045F21051884210D14FF430504E49088172
:103830004FF4285048814FF42C5088814FF4F07099
:1038400008804FF4487048808AE04748808841F6F5
:10385000631188420DD12C20434908812B204881D7
:103860002A2088814FF4F07008804FF44870488017
:1038700076E022203C49088120204881212088814F
:103880006EE00120384988714FF4A0700880F02064
:1038900048800846808849F24131884205D0324844
:1038A000808845F21031884207D12C202E490881AA
:1038B0002A2048812B2088813FE02B48808846F6CB
:1038C0000401884207D12C20274908812B204881F8
:1038D0002A20888131E02448808845F210518842AE
:1038E00010D14FF43050204908814FF428504881BE
:1038F0004FF42C5088814FF4487008804FF4F070DA
:1039000048801AE01848808841F6631188420DD13A
:103910002C20154908812A2048812B2088814FF4CA
:10392000487008804FF4F070488006E022200E496D
:10393000088121204881202088810B48808846F614
:103940000401884205D00848808845F21031884239
:1039500006D14FF4F070044908804FF4A0704880FD
:10396000002003F01DFE10BDB00100202DE9FF4F27
:1039700084B081468A460020039002900698A0EB0E
:1039800009050798A0EB0A06CDF80490CDF800A031
:10399000002D01DD012705E00DB9002702E04FF001
:1039A000FF376D42002E02DD4FF0010806E016B928
:1039B0004FF0000802E04FF0FF387642B54201DDDB
:1039C0002C4600E034464FF0000B21E0009A91B203
:1039D000019A90B200F022F80398284403900298CC
:1039E000304402900398A04205DD0398001B039029
:1039F0000198384401900298A04205DD0298001B0E
:103A000002900098404400900BF101001FFA80FBE7
:103A1000601C8345DADD08B0BDE8F08F30B50446A0
:103A20000D462946204603F031FF04F07FF9024895
:103A300000880249088030BD240000200008006C86
:103A40002DE9F04306460F469046002445460320E4
:103A5000A0EB48093CE07A1B91B2321990B2FFF713
:103A6000DDFF3A1B91B2721990B2FFF7D7FF3A19F6
:103A700091B2721990B2FFF7D1FF7A1991B232194F
:103A800090B2FFF7CBFF7A1991B2321B90B2FFF7D9
:103A9000C5FF3A1991B2721B90B2FFF7BFFF7A1BB4
:103AA00091B2321B90B2FFF7B9FF3A1B91B2721B71
:103AB00090B2FFF7B3FF641CB9F1000F03DAA00066
:103AC000801D814404E0601B80000A3081446D1E2B
:103AD000AC42C0DDBDE8F0832DE9F84F04460D4649
:103AE0009046994626462F460A98009000BF2CE043
:103AF000009890F800A04FF0000B1FE00AF0800043
:103B000030B1144802883946304600F027F805E005
:103B1000114802883946304600F020F84FEA4A60E2
:103B20004FEA106A701C86B2464503DB2646781CB5
:103B300087B206E00BF1010000F0FF0BBBF1080FAC
:103B4000DCDB00BF0098401C00904F45D0DBBDE897
:103B5000F88F0000240000202600002030B5034626
:103B60000C4615465A48808849F24131884205D0B2
:103B70005748808845F21031884214D15449488909
:103B800004F0CEF8181204F0C5F8D8B204F0C2F868
:103B90004F49888904F0C4F8201204F0BBF8E0B261
:103BA00004F0B8F88CE04A48808845F21051884209
:103BB00020D14749488904F0B3F8181204F0AAF854
:103BC00043494989491C88B204F0AAF8D8B204F0E4
:103BD000A1F83F49888904F0A3F8201204F09AF86C
:103BE0003B498989491C88B204F09AF8E0B204F094
:103BF00091F865E03648808841F66311884228D103
:103C00003348807920B932480088401EC01A83B2F8
:103C10002F49488904F084F8181204F07BF8D8B2D0
:103C200004F078F8181204F075F8D8B204F072F8BD
:103C30002749888904F074F8201204F06BF8E0B288
:103C400004F068F8201204F065F8E0B204F062F8BD
:103C500036E01F48808846F6040188421DD11C4882
:103C60008079012804D11A480088401EC01A83B206
:103C70001749488904F054F8181204F04BF8D8B2E8
:103C800004F048F81249888904F04AF8201204F038
:103C900041F8E0B204F03EF812E00D4880790128C6
:103CA00004D10B480088401EC01A83B208494889D5
:103CB000194604F045F806498889214604F040F881
:103CC0000348008903490880881C058030BD000036
:103CD000B0010020FE07006C2DE9FC4F05460E46A2
:103CE00017469846DDF82C900020019027488088E0
:103CF00046F60401884229D124488079012825D13B
:103D0000AB46354621480088C01B401E86B2474658
:103D10001E480088A0EB0B00401E1FFA80F8002010
:103D20001A4988712A2048812B20888143463A46C7
:103D300031462846CDF80090FFF7CEFF0120134909
:103D400088712B2048812A2088811CE0781B401C28
:103D500080B20190344614E02146284603F096FDD7
:103D600003F0E4FF4FF0000A06E00948A0F80090D5
:103D70000AF101001FFA80FA01988245F5DB601C08
:103D800084B24445E8DDBDE8FC8F0000B0010020AE
:103D90000008006C00B59FB00121080204F004FA8D
:103DA00001214FF4B47004F02FFA0120ADF878002F
:103DB00010208DF87B0003208DF87A001EA9FE48A4
:103DC000FEF73AFF4CF23370ADF8780018208DF80A
:103DD0007B0003208DF87A001EA9F848FEF72CFF1F
:103DE0004FF68070ADF8780018208DF87B00032026
:103DF0008DF87A001EA9F248FEF71EFF41F201007D
:103E0000ADF8780018208DF87B0003208DF87A003B
:103E10001EA9EC48FEF710FF012008900020099031
:103E20000F200A9000200B900C900D900E900190A6
:103E300002900320039000200490059006900790C4
:103E400006200F900020109011901020129000205A
:103E5000139015901490169017904FF4805018906E
:103E6000002019904FF480401A9000201B9008A861
:103E70001C9001A81D900FA8FEF704FC012106204C
:103E8000FEF7E6FB322008F041FD002003F052FB74
:103E9000CD49888008468088FF280ADB084680884C
:103EA0004FF6FF71884204D0C7488088B0F5134FA1
:103EB0007ED1D32003F034FF03F032FBC249888067
:103EC00003F02EFBC049888003F02AFBBE4988809E
:103ED000084680884FF6FF7101EA0020BA498880C1
:103EE00003F01EFBB84989880843B7498880084613
:103EF000808849F2413188425AD0BF2003F010FF38
:103F000003F00EFBB049888003F00AFBAE498880BD
:103F100003F006FBAC49888003F002FBAA498880C5
:103F2000084680884FF6FF7101EA0020A649888084
:103F300003F0F6FAA44989880843A3498880084613
:103F4000808846F6040188427AD0D42003F0E8FE47
:103F500003F0E6FA9C49888003F0E2FA9A498880E7
:103F600003F0DEFA98498880084680884FF6FF7192
:103F700001EA00209449888003F0D2FA92498988A6
:103F80000843914988800846808845F2103188426C
:103F900056D04FF45A4003F0C3FE03F0C1FA8A49E9
:103FA00088804FF45B4003F0BBFE03F0B9FA00E0F9
:103FB00046E085498880084680884FF6FF7101EA0F
:103FC0000020814988804FF45C4003F0A9FE03F093
:103FD000A7FA7D49898808437B49888008468088FC
:103FE000B0F5004F02D145F21050888076488088A5
:103FF00045F21051884223D0A12003F091FE03F036
:104000008FFA7149888003F08BFA6F4988800846DF
:1040100080884FF6FF7101EA00206B49888003F029
:104020007FFA6949898808436749888008468088FB
:1040300045F26171884203D141F66310624988807C
:104040006148818861A0FCF77BF95F48808849F26C
:10405000413188427ED1CF2003F062FE002003F080
:1040600059FEC12003F056FE302003F053FEED2030
:1040700003F056FE642003F04DFE032003F04AFED9
:10408000122003F047FE812003F044FEE82003F0F5
:1040900047FE852003F03EFE102003F03BFE7A2011
:1040A00003F038FECB2003F03BFE392003F032FE54
:1040B0002C2003F02FFE002003F02CFE342003F010
:1040C00029FE022003F026FEF72003F029FE20201F
:1040D00003F020FEEA2003F023FE002003F01AFE86
:1040E000002003F017FEC02003F01AFE1B2003F08F
:1040F00011FEC12003F014FE012003F00BFEC520C9
:1041000003F00EFE302003F005FE302003F002FE27
:10411000C72003F005FEB72003F0FCFD362003F0B6
:10412000FFFD482003F0F6FD3A2003F0F9FD55208D
:1041300003F0F0FDB12003F0F3FD002003F0EAFDF1
:104140001A2003F0E7FDB62003F0EAFD0A2003F091
:10415000E1FD00E0AAE0A22003F0DCFDF22003F084
:10416000DFFD002003F0D6FD262003F0D9FD01205D
:1041700003F0D0FDE02003F0D3FD0F2003F0CAFDD3
:104180002A2003F0C7FD282003F0C4FD082003F017
:10419000C1FD0E2003F0BEFD082003F0BBFD54203E
:1041A00003F0B8FDA92003F0B5FD432003F0B2FDF4
:1041B0000A2003F0AFFD11E0000C014000140140A3
:1041C0000018014000200140B0010020204C434471
:1041D0002049443A25780D0A000000000F2003F022
:1041E00099FD002003F096FD002003F093FD0020D0
:1041F00003F090FD002003F08DFDE12003F090FD21
:10420000002003F087FD152003F084FD172003F044
:1042100081FD072003F07EFD112003F07BFD0620C9
:1042200003F078FD2B2003F075FD562003F072FD9E
:104230003C2003F06FFD052003F06CFD102003F01F
:1042400069FD0F2003F066FD3F2003F063FD3F2072
:1042500003F060FD0F2003F05DFD2B2003F060FDF7
:10426000002003F057FD002003F054FD012003F06F
:1042700051FD3F2003F04EFD2A2003F051FD0020A8
:1042800003F048FD002003F045FD002003F042FD4F
:10429000EF2003F03FFD112003F042FD782008F0ED
:1042A00035FB292003F03CFD03F01DB9FE48808852
:1042B00046F6040188427CD1112003F031FD142020
:1042C00008F024FBD02003F02BFD072003F022FD93
:1042D000422003F01FFD1D2003F01CFDD12003F040
:1042E0001FFD002003F016FD1A2003F013FD092026
:1042F00003F010FDD22003F013FD012003F00AFDAE
:10430000222003F007FDC02003F00AFD102003F077
:1043100001FD3B2003F0FEFC002003F0FBFC02202B
:1043200003F0F8FC112003F0F5FCC52003F0F8FCC5
:10433000032003F0EFFCC82003F0F2FC002003F0A0
:10434000E9FC252003F0E6FC212003F0E3FC052036
:1043500003F0E0FC002003F0DDFC0A2003F0DAFCAF
:10436000652003F0D7FC252003F0D4FC772003F070
:10437000D1FC502003F0CEFC0F2003F0CBFC00203A
:1043800003F0C8FCF82003F0CBFC012003F0C2FCD2
:10439000FE2003F0C5FC002003F0BCFC022003F06B
:1043A000B9FC202003F0BCFC362003F0B9FC082047
:1043B00000E02CE003F0AEFC3A2003F0B1FC552005
:1043C00003F0A8FC2B2003F0ABFC002003F0A2FCC0
:1043D000002003F09FFC012003F09CFC3F2003F031
:1043E00099FC2A2003F09CFC002003F093FC0020A1
:1043F00003F090FC012003F08DFCDF2003F08AFC29
:10440000782008F083FA292003F08AFC4CE7A648BC
:10441000808845F21031884240F07C87ED2003F01F
:104420007FFC012003F076FCFE2003F073FCEE20FD
:1044300003F076FCDE2003F06DFC212003F06AFC23
:10444000F12003F06DFC012003F064FCDF2003F099
:1044500067FC102003F05EFCC42003F061FC8F2099
:1044600003F058FCC62003F05BFC002003F052FC74
:10447000E22003F04FFCE22003F04CFCE22003F0CA
:1044800049FCBF2003F04CFCAA2003F043FCB02001
:1044900003F046FC0D2003F03DFC002003F03AFC45
:1044A0000D2003F037FC002003F034FC112003F052
:1044B00031FC002003F02EFC192003F02BFC00201F
:1044C00003F028FC212003F025FC002003F022FC4F
:1044D0002D2003F01FFC002003F01CFC3D2003F006
:1044E00019FC002003F016FC5D2003F013FC0020F3
:1044F00003F010FC5D2003F00DFC002003F00AFC2B
:10450000B12003F00DFC802003F004FC002003F038
:1045100001FC8B2003F0FEFB002003F0FBFB962048
:1045200003F0F8FB002003F0F5FBB22003F0F8FBEA
:10453000002003F0EFFB002003F0ECFB022003F06F
:10454000E9FB002003F0E6FB032003F0E3FB00207F
:1045500003F0E0FBB32003F0E3FB002003F0DAFB01
:10456000002003F0D7FB002003F0D4FB002003F071
:10457000D1FB002003F0CEFB002003F0CBFB00209A
:1045800003F0C8FB002003F0C5FB002003F0C2FBD2
:10459000002003F0BFFB002003F0BCFB002003F071
:1045A000B9FB002003F0B6FB002003F0B3FB0020B2
:1045B00003F0B0FB002003F0ADFB002003F0AAFBEA
:1045C000002003F0A7FB002003F0A4FB002003F071
:1045D000A1FB002003F09EFB002003F09BFB0020CA
:1045E00003F098FB002003F095FBB42003F098FB48
:1045F0008B2003F08FFB002003F08CFB962003F050
:1046000089FB002003F086FBA12003F083FB002040
:1046100003F080FBB52003F083FB022003F07AFB5C
:10462000002003F077FB032003F074FB002003F06D
:1046300071FB042003F06EFB002003F06BFBB6203F
:1046400003F06EFB002003F065FB002003F062FB2B
:10465000B72003F065FB002003F05CFB002003F0B3
:1046600059FB3F2003F056FB002003F053FB5E2074
:1046700003F050FB002003F04DFB642003F04AFBE5
:10468000002003F047FB8C2003F044FB002003F0E4
:1046900041FBAC2003F03EFB002003F03BFBDC20A1
:1046A00003F038FB002001E0B001002003F032FBF2
:1046B000702003F02FFB002003F02CFB902003F070
:1046C00029FB002003F026FBEB2003F023FB002056
:1046D00003F020FBDC2003F01DFB002003F01AFB9D
:1046E000B82003F01DFB002003F014FB002003F0B2
:1046F00011FB002003F00EFB002003F00BFB002059
:1047000003F008FB002003F005FB002003F002FB90
:10471000002003F0FFFABA2003F002FB242003F08C
:10472000F9FA002003F0F6FA002003F0F3FA002073
:1047300003F0F0FAC12003F0F3FA202003F0EAFAC4
:10474000002003F0E7FA542003F0E4FA002003F01D
:10475000E1FAFF2003F0DEFA002003F0DBFAC220CA
:1047600003F0DEFA0A2003F0D5FA002003F0D2FAB3
:10477000042003F0CFFA002003F0CCFAC32003F0AA
:10478000CFFA3C2003F0C6FA002003F0C3FA3A2027
:1047900003F0C0FA002003F0BDFA392003F0BAFAA2
:1047A000002003F0B7FA372003F0B4FA002003F03A
:1047B000B1FA3C2003F0AEFA002003F0ABFA362049
:1047C00003F0A8FA002003F0A5FA322003F0A2FAC1
:1047D000002003F09FFA2F2003F09CFA002003F042
:1047E00099FA2C2003F096FA002003F093FA29207E
:1047F00003F090FA002003F08DFA262003F08AFAE5
:10480000002003F087FA242003F084FA002003F04C
:1048100081FA242003F07EFA002003F07BFA2320A3
:1048200003F078FA002003F075FA3C2003F072FAE6
:10483000002003F06FFA362003F06CFA002003F03A
:1048400069FA322003F066FA002003F063FA2F20A1
:1048500003F060FA002003F05DFA2C2003F05AFA0E
:10486000002003F057FA292003F054FA002003F047
:1048700051FA262003F04EFA002003F04BFA2420D0
:1048800003F048FA002003F045FA242003F042FA2E
:10489000002003F03FFA232003F03CFA002003F04D
:1048A00039FAC42003F03CFA622003F033FA002006
:1048B00003F030FA052003F02DFA002003F02AFA65
:1048C000842003F027FA002003F024FAF02003F0FC
:1048D00021FA002003F01EFA182003F01BFA002032
:1048E00003F018FAA42003F015FA002003F012FADE
:1048F000182003F00FFA002003F00CFA502003F008
:1049000009FA002003F006FA0C2003F003FA002055
:1049100003F000FA172003F0FDF9002003F0FAF984
:10492000952003F0F7F9002003F0F4F9F32003F0E9
:10493000F1F9002003F0EEF9E62003F0EBF9002096
:1049400003F0E8F9C52003F0EBF9322003F0E2F9B7
:10495000002003F0DFF9442003F0DCF9002003F02D
:10496000D9F9652003F0D6F9002003F0D3F97620B9
:1049700003F0D0F9002003F0CDF9882003F0CAF944
:10498000002003F0C7F9C62003F0CAF9202003F085
:10499000C1F9002003F0BEF9172003F0BBF9002095
:1049A00003F0B8F9012003F0B5F9002003F0B2F9E3
:1049B000C72003F0B5F9002003F0ACF9002003F0A4
:1049C000A9F9002003F0A6F9002003F0A3F9C820FC
:1049D00003F0A6F9002003F09DF9002003F09AF9F6
:1049E000002003F097F9002003F094F9C92003F0A8
:1049F00097F9002003F08EF9002003F08BF90020D6
:104A000003F088F9002003F085F9002003F082F913
:104A1000002003F07FF9002003F07CF9002003F070
:104A200079F9002003F076F9002003F073F90020F3
:104A300003F070F9002003F06DF9002003F06AF92B
:104A4000002003F067F9002003F064F9002003F070
:104A500061F9E02003F064F9162003F05BF900200F
:104A600003F058F91C2003F055F9002003F052F927
:104A7000212003F04FF9002003F04CF9362003F019
:104A800049F9002003F046F9462003F043F90020DD
:104A900003F040F9522003F03DF9002003F03AF909
:104AA000642003F037F9002003F034F97A2003F092
:104AB00031F9002003F02EF98B2003F02BF90020B0
:104AC00003F028F9992003F025F9002003F022F9DA
:104AD000A82003F01FF9002003F01CF9B92003F00F
:104AE00019F9002003F016F9C42003F013F900208F
:104AF00003F010F9CA2003F00DF9002003F00AF9C1
:104B0000D22003F007F9002003F004F9D92003F0C4
:104B100001F9002003F0FEF8E02003F0FBF800208C
:104B200003F0F8F8F32003F0F5F8002003F0F2F8B2
:104B3000E12003F0F5F8162003F0ECF8002003F074
:104B4000E9F81C2003F0E6F8002003F0E3F8222047
:104B500003F0E0F8002003F0DDF8362003F0DAF887
:104B6000002003F0D7F8452003F0D4F8002003F02C
:104B7000D1F8522003F0CEF8002003F0CBF86420E7
:104B800003F0C8F8002003F0C5F87A2003F0C2F85B
:104B9000002003F0BFF88B2003F0BCF8002003F0E6
:104BA000B9F8992003F0B6F8002003F0B3F8A82074
:104BB00003F0B0F8002003F0ADF8B92003F0AAF834
:104BC000002003F0A7F8C42003F0A4F8002003F0AD
:104BD000A1F8CA2003F09EF8002003F09BF8D22031
:104BE00003F098F8002003F095F8D82003F092F82D
:104BF000002003F08FF8E02003F08CF8002003F091
:104C000089F8F32003F086F8002003F083F8E2200F
:104C100003F086F8052003F07DF8002003F07AF811
:104C20000B2003F077F8002003F074F81B2003F04A
:104C300071F8002003F06EF8342003F06BF80020C8
:104C400003F068F8442003F065F8002003F062F8F0
:104C50004F2003F05FF8002003F05CF8612003F0C0
:104C600059F8002003F056F8792003F053F800209B
:104C700003F050F8882003F04DF8002003F04AF8C4
:104C8000972003F047F8002003F044F8A62003F033
:104C900041F8002003F03EF8B72003F03BF8002075
:104CA00003F038F8C22003F035F8002003F032F8A2
:104CB000C72003F02FF8002003F02CF8D12003F0D8
:104CC00029F8002003F026F8D62003F023F800206E
:104CD00003F020F8DD2003F01DF8002003F01AF89F
:104CE000F32003F017F8002003F014F8E32003F09A
:104CF00017F8052003F00EF8002003F00BF80A2047
:104D000003F008F8002003F005F81C2003F002F877
:104D1000002002F0FFFF332002F0FCFF002002F031
:104D2000F9FF442002F0F6FF002002F0F3FF5020CC
:104D300002F0F0FF002002F0EDFF622002F0EAFF37
:104D4000002002F0E7FF782002F0E4FF002002F0EC
:104D5000E1FF882002F0DEFF002002F0DBFF972059
:104D600002F0D8FF002002F0D5FFA62002F0D2FF0B
:104D7000002002F0CFFFB72002F0CCFF002002F0AD
:104D8000C9FFC22002F0C6FF002002F0C3FFC72007
:104D900002F0C0FF002002F0BDFFD12002F0BAFFF8
:104DA000002002F0B7FFD52002F0B4FF002002F08F
:104DB000B1FFDD2002F0AEFF002002F0ABFFF320D8
:104DC00002F0A8FF002002F0A5FFE42002F0A8FFF7
:104DD000012002F09FFF002002F09CFF012002F062
:104DE00099FF002002F096FF022002F093FF0020BE
:104DF00002F090FF2A2002F08DFF002002F08AFFCF
:104E00003C2002F087FF002002F084FF4B2002F0DC
:104E100081FF002002F07EFF5D2002F07BFF00207A
:104E200002F078FF742002F075FF002002F072FF9C
:104E3000842002F06FFF002002F06CFF932002F04C
:104E400069FF002002F066FFA22002F063FF00204D
:104E500002F060FFB32002F05DFF002002F05AFF75
:104E6000BE2002F057FF002002F054FFC42002F0E1
:104E700051FF002002F04EFFCD2002F04BFF00203A
:104E800002F048FFD32002F045FF002002F042FF6D
:104E9000DD2002F03FFF002002F03CFFF32002F093
:104EA00039FF002002F036FFE52002F039FF002034
:104EB00002F030FF002002F02DFF002002F02AFF58
:104EC000002002F027FF022002F024FF002002F061
:104ED00021FF292002F01EFF002002F01BFF3C20D2
:104EE00002F018FF002002F015FF4B2002F012FF25
:104EF000002002F00FFF5D2002F00CFF002002F006
:104F000009FF742002F006FF002002F003FF842056
:104F100002F000FF002002F0FDFE932002F0FAFEF6
:104F2000002002F0F7FEA22002F0F4FE002002F0C2
:104F3000F1FEB32002F0EEFE002002F0EBFEBE20F8
:104F400002F0E8FE002002F0E5FEC42002F0E2FEDE
:104F5000002002F0DFFECD2002F0DCFE002002F097
:104F6000D9FED32002F0D6FE002002F0D3FEDC20D2
:104F700002F0D0FE002002F0CDFEF32002F0CAFEC7
:104F8000002002F0C7FEE62002F0CAFE112002F067
:104F9000C1FE002002F0BEFE342002F0BBFE002065
:104FA00002F0B8FE562002F0B5FE002002F0B2FE7C
:104FB000762002F0AFFE002002F0ACFE772002F077
:104FC000A9FE002002F0A6FE662002F0A3FE00204B
:104FD00002F0A0FE882002F09DFE002002F09AFE62
:104FE000992002F097FE002002F094FEBB2002F010
:104FF00091FE002002F08EFE992002F08BFE002030
:1050000002F088FE662002F085FE002002F082FE9B
:10501000552002F07FFE002002F07CFE552002F0B9
:1050200079FE002002F076FE452002F073FE00209B
:1050300002F070FE432002F06DFE002002F06AFED6
:10504000442002F067FE002002F064FEE72002F038
:1050500067FE322002F05EFE002002F05BFE55206B
:1050600002F058FE002002F055FE762002F052FEBB
:10507000002002F04FFE662002F04CFE002002F0FD
:1050800049FE672002F046FE002002F043FE672042
:1050900002F040FE002002F03DFE872002F03AFEC2
:1050A000002002F037FE992002F034FE002002F0CA
:1050B00031FEBB2002F02EFE002002F02BFE9920D4
:1050C00002F028FE002002F025FE772002F022FEEA
:1050D000002002F01FFE442002F01CFE002002F01F
:1050E00019FE562002F016FE002002F013FE2320C7
:1050F00002F010FE002002F00DFE332002F00AFE46
:10510000002002F007FE452002F004FE002002F01D
:1051100001FEE82002F004FE002002F0FBFD00206A
:1051200002F0F8FD992002F0F5FD002002F0F2FDFA
:10513000872002F0EFFD002002F0ECFD882002F055
:10514000E9FD002002F0E6FD772002F0E3FD0020FB
:1051500002F0E0FD662002F0DDFD002002F0DAFD45
:10516000882002F0D7FD002002F0D4FDAA2002F032
:10517000D1FD002002F0CEFDBB2002F0CBFD0020CF
:1051800002F0C8FD992002F0C5FD002002F0C2FD2A
:10519000662002F0BFFD002002F0BCFD552002F0A9
:1051A000B9FD002002F0B6FD552002F0B3FD00204D
:1051B00002F0B0FD442002F0ADFD002002F0AAFD97
:1051C000442002F0A7FD002002F0A4FD552002F0CB
:1051D000A1FD002002F09EFDE92002F0A1FDAA2021
:1051E00002F098FD002002F095FD002002F092FDF3
:1051F000002002F08FFD002002F092FDAA2002F0B4
:1052000089FDCF2002F08CFD002002F083FD0020FC
:1052100002F080FD002002F07DFD002002F07AFD0A
:10522000002002F077FD002002F074FD002002F063
:1052300071FD002002F06EFD002002F06BFD0020E9
:1052400002F068FD002002F065FD002002F062FD22
:10525000002002F05FFD002002F05CFD002002F063
:1052600059FD002002F056FD002002F053FDF02011
:1052700002F056FD002002F04DFD502002F04AFDE4
:10528000002002F047FD002002F044FD002002F063
:1052900041FDF32002F044FD002002F03BFDF92027
:1052A00002F03EFD062002F035FD102002F032FD36
:1052B000292002F02FFD002002F02CFD3A2002F000
:1052C0002FFD552002F026FD112002F029FD64205B
:1052D00007F01CFB292002F023FD352002F020FD01
:1052E000002002F017FD512002F01AFDFF2002F00D
:1052F00011FD532002F014FD2C2002F00BFD55206F
:1053000002F00EFD822002F005FD2C2002F008FDC7
:1053100002F0E9B8FE48808845F2105188427DD1FC
:1053200055214FF4704002F00BFDAA214FF201000D
:1053300002F006FD52214FF2020002F001FD0821A9
:105340004FF2030002F0FCFC01214FF2040002F0D6
:10535000F7FC0D214FF4304002F0F2FC0D214BF22E
:10536000010002F0EDFC0D214BF2020002F0E8FC1E
:1053700034214FF4364002F0E3FC34214BF201605B
:1053800002F0DEFC34214BF2026002F0D9FC0D2168
:105390004FF4314002F0D4FC0D214BF2011002F029
:1053A000CFFC0D214BF2021002F0CAFC34214FF465
:1053B000374002F0C5FC34214BF2017002F0C0FC12
:1053C00034214BF2027002F0BBFC00214FF432405A
:1053D00002F0B6FC00214BF2012002F0B1FC0021EA
:1053E0004BF2022002F0ACFC24214FF4384002F0D2
:1053F000A7FC24214BF6010002F0A2FC24214BF66D
:10540000020002F09DFC01214FF43F4002F098FCA5
:105410000F214FF4334002F093FC00E0FDE30F2135
:105420004BF2013002F08CFC0F214BF2023002F003
:1054300087FC34214FF4394002F082FC34214BF6D2
:10544000011002F07DFC34214BF6021002F078FCD2
:1054500008214FF4354002F073FC08214BF2015053
:1054600002F06EFC08214BF2025002F069FC0321AD
:105470004FF4424002F064FC24214FF43A4002F021
:105480005FFC24214BF6012002F05AFC24214BF64C
:10549000022002F055FC00214FF43C4002F050FC89
:1054A00078214BF6014002F04BFC00214BF6024004
:1054B00002F046FC00214FF43D4002F041FC78210F
:1054C0004BF6015002F03CFC00214BF6025002F07A
:1054D00037FC00214FF43E4002F032FC64214BF6D1
:1054E000016002F02DFC00214FF4514002F028FC35
:1054F00033214DF2011002F023FC00214DF2021085
:1055000002F01EFC34214DF2031002F019FC0021C0
:105510004DF2041002F014FC3A214DF2051002F095
:105520000FFC00214DF2061002F00AFC4A214DF258
:10553000071002F005FC00214DF2081002F000FCFB
:105540005C214DF2091002F0FBFB00214DF20A1024
:1055500002F0F6FB81214DF20B1002F0F1FB00216D
:105560004DF20C1002F0ECFBA6214DF20D1002F0F2
:10557000E7FB00214DF20E1002F0E2FBE5214DF2B7
:105580000F1002F0DDFB01214DF2101002F0D8FBEC
:1055900013214DF2111002F0D3FB01214DF2121034
:1055A00002F0CEFB54214DF2131002F0C9FB012191
:1055B0004DF2141002F0C4FB82214DF2151002F0DE
:1055C000BFFB01214DF2161002F0BAFBCA214DF2C9
:1055D000171002F0B5FB02214DF2181002F0B0FBDB
:1055E00000214DF2191002F0ABFB02214DF21A100E
:1055F00002F0A6FB01214DF21B1002F0A1FB0221DB
:105600004DF21C1002F09CFB34214DF21D1002F0F3
:1056100097FB02214DF21E1002F092FB67214DF222
:105620001F1002F08DFB02214DF2201002F088FBCA
:1056300084214DF2211002F083FB02214DF2221051
:1056400002F07EFBA4214DF2231002F079FB02212F
:105650004DF2241002F074FBB7214DF2251002F038
:105660006FFB02214DF2261002F06AFBCF214DF2B2
:10567000271002F065FB02214DF2281002F060FBBA
:10568000DE214DF2291002F05BFB02214DF22A10BF
:1056900002F056FBF2214DF22B1002F051FB0221D9
:1056A0004DF22C1002F04CFBFE214DF22D1002F0B9
:1056B00047FB03214DF22E1002F042FB10214DF268
:1056C0002F1002F03DFB03214DF2301002F038FBA9
:1056D00033214DF2311002F033FB03214DF2321031
:1056E00002F02EFB6D214DF2331002F029FB002158
:1056F0004FF4524002F024FB33214DF2012002F01E
:105700001FFB00214DF2022002F01AFB342101E0C0
:10571000B00100204DF2032002F012FB00214DF2F7
:10572000042002F00DFB3A214DF2052002F008FBA7
:1057300000214DF2062002F003FB4A214DF2072022
:1057400002F0FEFA00214DF2082002F0F9FA5C2185
:105750004DF2092002F0F4FA00214DF20A2002F085
:10576000EFFA81214DF20B2002F0EAFA00214DF20E
:105770000C2002F0E5FAA6214DF20D2002F0E0FA2D
:1057800000214DF20E2002F0DBFAE5214DF20F2050
:1057900002F0D6FA01214DF2102002F0D1FA1321C5
:1057A0004DF2112002F0CCFA01214DF2122002F04C
:1057B000C7FA54214DF2132002F0C2FA01214DF232
:1057C000142002F0BDFA82214DF2152002F0B8FA41
:1057D00001214DF2162002F0B3FACA214DF2172032
:1057E00002F0AEFA02214DF2182002F0A9FA0021CF
:1057F0004DF2192002F0A4FA02214DF21A2002F013
:105800009FFA01214DF21B2002F09AFA02214DF27B
:105810001C2002F095FA34214DF21D2002F090FA7E
:1058200002214DF21E2002F08BFA67214DF21F205B
:1058300002F086FA02214DF2202002F081FA842142
:105840004DF2212002F07CFA02214DF2222002F0DA
:1058500077FAA4214DF2232002F072FA02214DF2D0
:10586000242002F06DFAB7214DF2252002F068FAEB
:1058700002214DF2262002F063FACF214DF22720BB
:1058800002F05EFA02214DF2282002F059FADE21E0
:105890004DF2292002F054FA02214DF22A2002F0A2
:1058A0004FFAF2214DF22B2002F04AFA02214DF27A
:1058B0002C2002F045FAFE214DF22D2002F040FA94
:1058C00003214DF22E2002F03BFA10214DF22F2041
:1058D00002F036FA03214DF2302002F031FA332182
:1058E0004DF2312002F02CFA03214DF2322002F069
:1058F00027FA6D214DF2332002F022FA00214FF4F5
:10590000534002F01DFA33214DF2013002F018FA33
:1059100000214DF2023002F013FA34214DF203302F
:1059200002F00EFA00214DF2043002F009FA3A2199
:105930004DF2053002F004FA00214DF2063002F07B
:10594000FFF94A214DF2073002F0FAF900214DF239
:10595000083002F0F5F95C214DF2093002F0F0F95F
:1059600000214DF20A3002F0EBF981214DF20B30AB
:1059700002F0E6F900214DF20C3002F0E1F9A62127
:105980004DF20D3002F0DCF900214DF20E3002F044
:10599000D7F9E5214DF20F3002F0D2F901214DF295
:1059A000103002F0CDF913214DF2113002F0C8F998
:1059B00001214DF2123002F0C3F954214DF213309F
:1059C00002F0BEF901214DF2143002F0B9F9822142
:1059D0004DF2153002F0B4F901214DF2163002F00B
:1059E000AFF9CA214DF2173002F0AAF902214DF2A7
:1059F000183002F0A5F900214DF2193002F0A0F99B
:105A000002214DF21A3002F09BF901214DF21B30B8
:105A100002F096F902214DF21C3002F091F9342186
:105A20004DF21D3002F08CF902214DF21E3002F0D1
:105A300087F967214DF21F3002F082F902214DF201
:105A4000203002F07DF984214DF2213002F078F906
:105A500002214DF2223002F073F9A4214DF22330DD
:105A600002F06EF902214DF2243002F069F9B721FB
:105A70004DF2253002F064F902214DF2263002F099
:105A80005FF9CF214DF2273002F05AF902214DF291
:105A9000283002F055F9DE214DF2293002F050F99C
:105AA00002214DF22A3002F04BF9F2214DF22B3057
:105AB00002F046F902214DF22C3002F041F9FE21AC
:105AC0004DF22D3002F03CF903214DF22E3002F060
:105AD00037F910214DF22F3002F032F903214DF247
